{
  "_format": "hh-sol-artifact-1",
  "contractName": "Gmedia",
  "sourceName": "contracts/Gmedia.sol",
  "abi": [
    {
      "inputs": [
        {
          "internalType": "address",
          "name": "_profileContract",
          "type": "address"
        }
      ],
      "stateMutability": "nonpayable",
      "type": "constructor"
    },
    {
      "anonymous": false,
      "inputs": [
        {
          "indexed": false,
          "internalType": "uint256",
          "name": "id",
          "type": "uint256"
        },
        {
          "indexed": false,
          "internalType": "address",
          "name": "author",
          "type": "address"
        },
        {
          "indexed": false,
          "internalType": "string",
          "name": "content",
          "type": "string"
        },
        {
          "indexed": false,
          "internalType": "uint256",
          "name": "timestamp",
          "type": "uint256"
        }
      ],
      "name": "TweetCreated",
      "type": "event"
    },
    {
      "anonymous": false,
      "inputs": [
        {
          "indexed": false,
          "internalType": "address",
          "name": "liker",
          "type": "address"
        },
        {
          "indexed": false,
          "internalType": "address",
          "name": "tweetAuthor",
          "type": "address"
        },
        {
          "indexed": false,
          "internalType": "uint256",
          "name": "tweetId",
          "type": "uint256"
        },
        {
          "indexed": false,
          "internalType": "uint256",
          "name": "newLikeCount",
          "type": "uint256"
        }
      ],
      "name": "TweetLiked",
      "type": "event"
    },
    {
      "anonymous": false,
      "inputs": [
        {
          "indexed": false,
          "internalType": "address",
          "name": "unliker",
          "type": "address"
        },
        {
          "indexed": false,
          "internalType": "address",
          "name": "tweetAuthor",
          "type": "address"
        },
        {
          "indexed": false,
          "internalType": "uint256",
          "name": "tweetId",
          "type": "uint256"
        },
        {
          "indexed": false,
          "internalType": "uint256",
          "name": "newLikeCount",
          "type": "uint256"
        }
      ],
      "name": "TweetUnliked",
      "type": "event"
    },
    {
      "inputs": [],
      "name": "MAX_TWEET_LENGTH",
      "outputs": [
        {
          "internalType": "uint16",
          "name": "",
          "type": "uint16"
        }
      ],
      "stateMutability": "view",
      "type": "function"
    },
    {
      "inputs": [
        {
          "internalType": "uint16",
          "name": "_newTweetLength",
          "type": "uint16"
        }
      ],
      "name": "changeTweetLength",
      "outputs": [],
      "stateMutability": "nonpayable",
      "type": "function"
    },
    {
      "inputs": [
        {
          "internalType": "string",
          "name": "_tweet",
          "type": "string"
        }
      ],
      "name": "createTweet",
      "outputs": [],
      "stateMutability": "nonpayable",
      "type": "function"
    },
    {
      "inputs": [
        {
          "internalType": "address",
          "name": "_owner",
          "type": "address"
        }
      ],
      "name": "getAllTweets",
      "outputs": [
        {
          "components": [
            {
              "internalType": "address",
              "name": "author",
              "type": "address"
            },
            {
              "internalType": "string",
              "name": "content",
              "type": "string"
            },
            {
              "internalType": "uint256",
              "name": "timestamp",
              "type": "uint256"
            },
            {
              "internalType": "uint256",
              "name": "likes",
              "type": "uint256"
            },
            {
              "internalType": "uint256",
              "name": "id",
              "type": "uint256"
            }
          ],
          "internalType": "struct Gmedia.Tweet[]",
          "name": "",
          "type": "tuple[]"
        }
      ],
      "stateMutability": "view",
      "type": "function"
    },
    {
      "inputs": [
        {
          "internalType": "address",
          "name": "_author",
          "type": "address"
        }
      ],
      "name": "getTotalLikes",
      "outputs": [
        {
          "internalType": "uint256",
          "name": "",
          "type": "uint256"
        }
      ],
      "stateMutability": "view",
      "type": "function"
    },
    {
      "inputs": [
        {
          "internalType": "uint256",
          "name": "_i",
          "type": "uint256"
        }
      ],
      "name": "getTweet",
      "outputs": [
        {
          "components": [
            {
              "internalType": "address",
              "name": "author",
              "type": "address"
            },
            {
              "internalType": "string",
              "name": "content",
              "type": "string"
            },
            {
              "internalType": "uint256",
              "name": "timestamp",
              "type": "uint256"
            },
            {
              "internalType": "uint256",
              "name": "likes",
              "type": "uint256"
            },
            {
              "internalType": "uint256",
              "name": "id",
              "type": "uint256"
            }
          ],
          "internalType": "struct Gmedia.Tweet",
          "name": "",
          "type": "tuple"
        }
      ],
      "stateMutability": "view",
      "type": "function"
    },
    {
      "inputs": [
        {
          "internalType": "address",
          "name": "author",
          "type": "address"
        },
        {
          "internalType": "uint256",
          "name": "id",
          "type": "uint256"
        }
      ],
      "name": "likeTweet",
      "outputs": [],
      "stateMutability": "nonpayable",
      "type": "function"
    },
    {
      "inputs": [
        {
          "internalType": "address",
          "name": "",
          "type": "address"
        },
        {
          "internalType": "uint256",
          "name": "",
          "type": "uint256"
        }
      ],
      "name": "tweets",
      "outputs": [
        {
          "internalType": "address",
          "name": "author",
          "type": "address"
        },
        {
          "internalType": "string",
          "name": "content",
          "type": "string"
        },
        {
          "internalType": "uint256",
          "name": "timestamp",
          "type": "uint256"
        },
        {
          "internalType": "uint256",
          "name": "likes",
          "type": "uint256"
        },
        {
          "internalType": "uint256",
          "name": "id",
          "type": "uint256"
        }
      ],
      "stateMutability": "view",
      "type": "function"
    },
    {
      "inputs": [
        {
          "internalType": "address",
          "name": "author",
          "type": "address"
        },
        {
          "internalType": "uint256",
          "name": "id",
          "type": "uint256"
        }
      ],
      "name": "unlikeTweet",
      "outputs": [],
      "stateMutability": "nonpayable",
      "type": "function"
    }
  ],
  "bytecode": "0x60806040526101186000806101000a81548161ffff021916908361ffff1602179055503480156200002f57600080fd5b506040516200202838038062002028833981810160405281019062000055919062000107565b80600260006101000a81548173ffffffffffffffffffffffffffffffffffffffff021916908373ffffffffffffffffffffffffffffffffffffffff1602179055505062000139565b600080fd5b600073ffffffffffffffffffffffffffffffffffffffff82169050919050565b6000620000cf82620000a2565b9050919050565b620000e181620000c2565b8114620000ed57600080fd5b50565b6000815190506200010181620000d6565b92915050565b60006020828403121562000120576200011f6200009d565b5b60006200013084828501620000f0565b91505092915050565b611edf80620001496000396000f3fe608060405234801561001057600080fd5b50600436106100935760003560e01c8063633782161161006657806363378216146101345780636eb10797146101505780637c9cd2bc1461016e578063820785cc1461018a578063c3ad5ecb146101ba57610093565b806305a1b4a91461009857806312e7ee1c146100cc5780633d9b569f146100fc57806358bfa4ab14610118575b600080fd5b6100b260048036038101906100ad91906110fb565b6101ea565b6040516100c39594939291906111e9565b60405180910390f35b6100e660048036038101906100e19190611243565b6102e5565b6040516100f39190611410565b60405180910390f35b610116600480360381019061011191906110fb565b610489565b005b610132600480360381019061012d919061146c565b6107db565b005b61014e600480360381019061014991906110fb565b6107fa565b005b610158610aa7565b60405161016591906114a8565b60405180910390f35b610188600480360381019061018391906115f8565b610ab9565b005b6101a4600480360381019061019f9190611243565b610db8565b6040516101b19190611641565b60405180910390f35b6101d460048036038101906101cf919061165c565b610e8f565b6040516101e191906116ff565b60405180910390f35b6001602052816000526040600020818154811061020657600080fd5b9060005260206000209060050201600091509150508060000160009054906101000a900473ffffffffffffffffffffffffffffffffffffffff169080600101805461025090611750565b80601f016020809104026020016040519081016040528092919081815260200182805461027c90611750565b80156102c95780601f1061029e576101008083540402835291602001916102c9565b820191906000526020600020905b8154815290600101906020018083116102ac57829003601f168201915b5050505050908060020154908060030154908060040154905085565b6060600160008373ffffffffffffffffffffffffffffffffffffffff1673ffffffffffffffffffffffffffffffffffffffff168152602001908152602001600020805480602002602001604051908101604052809291908181526020016000905b8282101561047e57838290600052602060002090600502016040518060a00160405290816000820160009054906101000a900473ffffffffffffffffffffffffffffffffffffffff1673ffffffffffffffffffffffffffffffffffffffff1673ffffffffffffffffffffffffffffffffffffffff1681526020016001820180546103cf90611750565b80601f01602080910402602001604051908101604052809291908181526020018280546103fb90611750565b80156104485780601f1061041d57610100808354040283529160200191610448565b820191906000526020600020905b81548152906001019060200180831161042b57829003601f168201915b50505050508152602001600282015481526020016003820154815260200160048201548152505081526020019060010190610346565b505050509050919050565b6000600260009054906101000a900473ffffffffffffffffffffffffffffffffffffffff1673ffffffffffffffffffffffffffffffffffffffff16630f53a470336040518263ffffffff1660e01b81526004016104e69190611781565b600060405180830381865afa158015610503573d6000803e3d6000fd5b505050506040513d6000823e3d601f19601f8201168201806040525081019061052c919061189e565b9050600081600001515111610576576040517f08c379a000000000000000000000000000000000000000000000000000000000815260040161056d90611933565b60405180910390fd5b81600160008573ffffffffffffffffffffffffffffffffffffffff1673ffffffffffffffffffffffffffffffffffffffff16815260200190815260200160002083815481106105c8576105c7611953565b5b9060005260206000209060050201600401541461061a576040517f08c379a0000000000000000000000000000000000000000000000000000000008152600401610611906119ce565b60405180910390fd5b6000600160008573ffffffffffffffffffffffffffffffffffffffff1673ffffffffffffffffffffffffffffffffffffffff168152602001908152602001600020838154811061066d5761066c611953565b5b906000526020600020906005020160030154116106bf576040517f08c379a00000000000000000000000000000000000000000000000000000000081526004016106b690611a3a565b60405180910390fd5b600160008473ffffffffffffffffffffffffffffffffffffffff1673ffffffffffffffffffffffffffffffffffffffff16815260200190815260200160002082815481106107105761070f611953565b5b9060005260206000209060050201600301600081548092919061073290611a89565b91905055507f762c2616349603ac16eba0de8e6141b79129a07ab63bd99e0a80b3a471716943338484600160008873ffffffffffffffffffffffffffffffffffffffff1673ffffffffffffffffffffffffffffffffffffffff16815260200190815260200160002086815481106107ac576107ab611953565b5b9060005260206000209060050201600301546040516107ce9493929190611ab2565b60405180910390a1505050565b806000806101000a81548161ffff021916908361ffff16021790555050565b6000600260009054906101000a900473ffffffffffffffffffffffffffffffffffffffff1673ffffffffffffffffffffffffffffffffffffffff16630f53a470336040518263ffffffff1660e01b81526004016108579190611781565b600060405180830381865afa158015610874573d6000803e3d6000fd5b505050506040513d6000823e3d601f19601f8201168201806040525081019061089d919061189e565b90506000816000015151116108e7576040517f08c379a00000000000000000000000000000000000000000000000000000000081526004016108de90611933565b60405180910390fd5b81600160008573ffffffffffffffffffffffffffffffffffffffff1673ffffffffffffffffffffffffffffffffffffffff168152602001908152602001600020838154811061093957610938611953565b5b9060005260206000209060050201600401541461098b576040517f08c379a0000000000000000000000000000000000000000000000000000000008152600401610982906119ce565b60405180910390fd5b600160008473ffffffffffffffffffffffffffffffffffffffff1673ffffffffffffffffffffffffffffffffffffffff16815260200190815260200160002082815481106109dc576109db611953565b5b906000526020600020906005020160030160008154809291906109fe90611af7565b91905055507fe8a76fc0f16d11a00d1e93b689b63d76cf60af914dd3d915375dc41d01a0c3c8338484600160008873ffffffffffffffffffffffffffffffffffffffff1673ffffffffffffffffffffffffffffffffffffffff1681526020019081526020016000208681548110610a7857610a77611953565b5b906000526020600020906005020160030154604051610a9a9493929190611ab2565b60405180910390a1505050565b60008054906101000a900461ffff1681565b6000600260009054906101000a900473ffffffffffffffffffffffffffffffffffffffff1673ffffffffffffffffffffffffffffffffffffffff16630f53a470336040518263ffffffff1660e01b8152600401610b169190611781565b600060405180830381865afa158015610b33573d6000803e3d6000fd5b505050506040513d6000823e3d601f19601f82011682018060405250810190610b5c919061189e565b9050600081600001515111610ba6576040517f08c379a0000000000000000000000000000000000000000000000000000000008152600401610b9d90611933565b60405180910390fd5b60008054906101000a900461ffff1661ffff1682511115610bfc576040517f08c379a0000000000000000000000000000000000000000000000000000000008152600401610bf390611b8b565b60405180910390fd5b60006040518060a001604052803373ffffffffffffffffffffffffffffffffffffffff16815260200184815260200142815260200160008152602001600160003373ffffffffffffffffffffffffffffffffffffffff1673ffffffffffffffffffffffffffffffffffffffff168152602001908152602001600020805490508152509050600160003373ffffffffffffffffffffffffffffffffffffffff1673ffffffffffffffffffffffffffffffffffffffff16815260200190815260200160002081908060018154018082558091505060019003906000526020600020906005020160009091909190915060008201518160000160006101000a81548173ffffffffffffffffffffffffffffffffffffffff021916908373ffffffffffffffffffffffffffffffffffffffff1602179055506020820151816001019081610d459190611d57565b5060408201518160020155606082015181600301556080820151816004015550507f16fd3c13e9d46923e0a8bce11c7b473ec508a72e6c96cd2404b29ce972afc29e8160800151826000015183602001518460400151604051610dab9493929190611e29565b60405180910390a1505050565b60008060005b600160008573ffffffffffffffffffffffffffffffffffffffff1673ffffffffffffffffffffffffffffffffffffffff16815260200190815260200160002080549050811015610e8557600160008573ffffffffffffffffffffffffffffffffffffffff1673ffffffffffffffffffffffffffffffffffffffff1681526020019081526020016000208181548110610e5957610e58611953565b5b90600052602060002090600502016003015482610e769190611e75565b91508080600101915050610dbe565b5080915050919050565b610e9761100e565b600160003373ffffffffffffffffffffffffffffffffffffffff1673ffffffffffffffffffffffffffffffffffffffff1681526020019081526020016000208281548110610ee857610ee7611953565b5b90600052602060002090600502016040518060a00160405290816000820160009054906101000a900473ffffffffffffffffffffffffffffffffffffffff1673ffffffffffffffffffffffffffffffffffffffff1673ffffffffffffffffffffffffffffffffffffffff168152602001600182018054610f6790611750565b80601f0160208091040260200160405190810160405280929190818152602001828054610f9390611750565b8015610fe05780601f10610fb557610100808354040283529160200191610fe0565b820191906000526020600020905b815481529060010190602001808311610fc357829003601f168201915b5050505050815260200160028201548152602001600382015481526020016004820154815250509050919050565b6040518060a00160405280600073ffffffffffffffffffffffffffffffffffffffff168152602001606081526020016000815260200160008152602001600081525090565b6000604051905090565b600080fd5b600080fd5b600073ffffffffffffffffffffffffffffffffffffffff82169050919050565b600061109282611067565b9050919050565b6110a281611087565b81146110ad57600080fd5b50565b6000813590506110bf81611099565b92915050565b6000819050919050565b6110d8816110c5565b81146110e357600080fd5b50565b6000813590506110f5816110cf565b92915050565b600080604083850312156111125761111161105d565b5b6000611120858286016110b0565b9250506020611131858286016110e6565b9150509250929050565b61114481611087565b82525050565b600081519050919050565b600082825260208201905092915050565b60005b83811015611184578082015181840152602081019050611169565b60008484015250505050565b6000601f19601f8301169050919050565b60006111ac8261114a565b6111b68185611155565b93506111c6818560208601611166565b6111cf81611190565b840191505092915050565b6111e3816110c5565b82525050565b600060a0820190506111fe600083018861113b565b818103602083015261121081876111a1565b905061121f60408301866111da565b61122c60608301856111da565b61123960808301846111da565b9695505050505050565b6000602082840312156112595761125861105d565b5b6000611267848285016110b0565b91505092915050565b600081519050919050565b600082825260208201905092915050565b6000819050602082019050919050565b6112a581611087565b82525050565b600082825260208201905092915050565b60006112c78261114a565b6112d181856112ab565b93506112e1818560208601611166565b6112ea81611190565b840191505092915050565b6112fe816110c5565b82525050565b600060a08301600083015161131c600086018261129c565b506020830151848203602086015261133482826112bc565b915050604083015161134960408601826112f5565b50606083015161135c60608601826112f5565b50608083015161136f60808601826112f5565b508091505092915050565b60006113868383611304565b905092915050565b6000602082019050919050565b60006113a682611270565b6113b0818561127b565b9350836020820285016113c28561128c565b8060005b858110156113fe57848403895281516113df858261137a565b94506113ea8361138e565b925060208a019950506001810190506113c6565b50829750879550505050505092915050565b6000602082019050818103600083015261142a818461139b565b905092915050565b600061ffff82169050919050565b61144981611432565b811461145457600080fd5b50565b60008135905061146681611440565b92915050565b6000602082840312156114825761148161105d565b5b600061149084828501611457565b91505092915050565b6114a281611432565b82525050565b60006020820190506114bd6000830184611499565b92915050565b600080fd5b600080fd5b7f4e487b7100000000000000000000000000000000000000000000000000000000600052604160045260246000fd5b61150582611190565b810181811067ffffffffffffffff82111715611524576115236114cd565b5b80604052505050565b6000611537611053565b905061154382826114fc565b919050565b600067ffffffffffffffff821115611563576115626114cd565b5b61156c82611190565b9050602081019050919050565b82818337600083830152505050565b600061159b61159684611548565b61152d565b9050828152602081018484840111156115b7576115b66114c8565b5b6115c2848285611579565b509392505050565b600082601f8301126115df576115de6114c3565b5b81356115ef848260208601611588565b91505092915050565b60006020828403121561160e5761160d61105d565b5b600082013567ffffffffffffffff81111561162c5761162b611062565b5b611638848285016115ca565b91505092915050565b600060208201905061165660008301846111da565b92915050565b6000602082840312156116725761167161105d565b5b6000611680848285016110e6565b91505092915050565b600060a0830160008301516116a1600086018261129c565b50602083015184820360208601526116b982826112bc565b91505060408301516116ce60408601826112f5565b5060608301516116e160608601826112f5565b5060808301516116f460808601826112f5565b508091505092915050565b600060208201905081810360008301526117198184611689565b905092915050565b7f4e487b7100000000000000000000000000000000000000000000000000000000600052602260045260246000fd5b6000600282049050600182168061176857607f821691505b60208210810361177b5761177a611721565b5b50919050565b6000602082019050611796600083018461113b565b92915050565b600080fd5b600080fd5b60006117b96117b484611548565b61152d565b9050828152602081018484840111156117d5576117d46114c8565b5b6117e0848285611166565b509392505050565b600082601f8301126117fd576117fc6114c3565b5b815161180d8482602086016117a6565b91505092915050565b60006040828403121561182c5761182b61179c565b5b611836604061152d565b9050600082015167ffffffffffffffff811115611856576118556117a1565b5b611862848285016117e8565b600083015250602082015167ffffffffffffffff811115611886576118856117a1565b5b611892848285016117e8565b60208301525092915050565b6000602082840312156118b4576118b361105d565b5b600082015167ffffffffffffffff8111156118d2576118d1611062565b5b6118de84828501611816565b91505092915050565b7f55534552204e4f54205245474953544552454400000000000000000000000000600082015250565b600061191d601383611155565b9150611928826118e7565b602082019050919050565b6000602082019050818103600083015261194c81611910565b9050919050565b7f4e487b7100000000000000000000000000000000000000000000000000000000600052603260045260246000fd5b7f547765657420446f65736e742065786973747321000000000000000000000000600082015250565b60006119b8601483611155565b91506119c382611982565b602082019050919050565b600060208201905081810360008301526119e7816119ab565b9050919050565b7f547765657420646f65736e742068617665206c696b6573000000000000000000600082015250565b6000611a24601783611155565b9150611a2f826119ee565b602082019050919050565b60006020820190508181036000830152611a5381611a17565b9050919050565b7f4e487b7100000000000000000000000000000000000000000000000000000000600052601160045260246000fd5b6000611a94826110c5565b915060008203611aa757611aa6611a5a565b5b600182039050919050565b6000608082019050611ac7600083018761113b565b611ad4602083018661113b565b611ae160408301856111da565b611aee60608301846111da565b95945050505050565b6000611b02826110c5565b91507fffffffffffffffffffffffffffffffffffffffffffffffffffffffffffffffff8203611b3457611b33611a5a565b5b600182019050919050565b7f547765657420697320746f6f206c6f6e67210000000000000000000000000000600082015250565b6000611b75601283611155565b9150611b8082611b3f565b602082019050919050565b60006020820190508181036000830152611ba481611b68565b9050919050565b60008190508160005260206000209050919050565b60006020601f8301049050919050565b600082821b905092915050565b600060088302611c0d7fffffffffffffffffffffffffffffffffffffffffffffffffffffffffffffffff82611bd0565b611c178683611bd0565b95508019841693508086168417925050509392505050565b6000819050919050565b6000611c54611c4f611c4a846110c5565b611c2f565b6110c5565b9050919050565b6000819050919050565b611c6e83611c39565b611c82611c7a82611c5b565b848454611bdd565b825550505050565b600090565b611c97611c8a565b611ca2818484611c65565b505050565b5b81811015611cc657611cbb600082611c8f565b600181019050611ca8565b5050565b601f821115611d0b57611cdc81611bab565b611ce584611bc0565b81016020851015611cf4578190505b611d08611d0085611bc0565b830182611ca7565b50505b505050565b600082821c905092915050565b6000611d2e60001984600802611d10565b1980831691505092915050565b6000611d478383611d1d565b9150826002028217905092915050565b611d608261114a565b67ffffffffffffffff811115611d7957611d786114cd565b5b611d838254611750565b611d8e828285611cca565b600060209050601f831160018114611dc15760008415611daf578287015190505b611db98582611d3b565b865550611e21565b601f198416611dcf86611bab565b60005b82811015611df757848901518255600182019150602085019450602081019050611dd2565b86831015611e145784890151611e10601f891682611d1d565b8355505b6001600288020188555050505b505050505050565b6000608082019050611e3e60008301876111da565b611e4b602083018661113b565b8181036040830152611e5d81856111a1565b9050611e6c60608301846111da565b95945050505050565b6000611e80826110c5565b9150611e8b836110c5565b9250828201905080821115611ea357611ea2611a5a565b5b9291505056fea2646970667358221220f281b2d1f8fd6274679662ebbade12ae9fe9a42346c07f11ccc4d66d92b7e5b064736f6c63430008180033",
  "linkReferences": {},
  "deployedLinkReferences": {}
}