{
  "_format": "hh-sol-artifact-1",
  "contractName": "Profile",
  "sourceName": "contracts/Profile.sol",
  "abi": [
    {
      "inputs": [
        {
          "internalType": "address",
          "name": "_user",
          "type": "address"
        }
      ],
      "name": "getProfile",
      "outputs": [
        {
          "components": [
            {
              "internalType": "string",
              "name": "displayName",
              "type": "string"
            },
            {
              "internalType": "string",
              "name": "bio",
              "type": "string"
            }
          ],
          "internalType": "struct Profile.UserProfile",
          "name": "",
          "type": "tuple"
        }
      ],
      "stateMutability": "view",
      "type": "function"
    },
    {
      "inputs": [
        {
          "internalType": "address",
          "name": "",
          "type": "address"
        }
      ],
      "name": "profiles",
      "outputs": [
        {
          "internalType": "string",
          "name": "displayName",
          "type": "string"
        },
        {
          "internalType": "string",
          "name": "bio",
          "type": "string"
        }
      ],
      "stateMutability": "view",
      "type": "function"
    },
    {
      "inputs": [
        {
          "internalType": "string",
          "name": "_displayName",
          "type": "string"
        },
        {
          "internalType": "string",
          "name": "_bio",
          "type": "string"
        }
      ],
      "name": "setProfile",
      "outputs": [],
      "stateMutability": "nonpayable",
      "type": "function"
    }
  ],
  "bytecode": "0x608060405234801561001057600080fd5b50610af4806100206000396000f3fe608060405234801561001057600080fd5b50600436106100415760003560e01c80630f53a47014610046578063719e37ae14610076578063bbe1562714610092575b600080fd5b610060600480360381019061005b9190610485565b6100c3565b60405161006d9190610586565b60405180910390f35b610090600480360381019061008b91906106dd565b61023f565b005b6100ac60048036038101906100a79190610485565b6102c5565b6040516100ba92919061079f565b60405180910390f35b6100cb6103f9565b6000808373ffffffffffffffffffffffffffffffffffffffff1673ffffffffffffffffffffffffffffffffffffffff16815260200190815260200160002060405180604001604052908160008201805461012490610805565b80601f016020809104026020016040519081016040528092919081815260200182805461015090610805565b801561019d5780601f106101725761010080835404028352916020019161019d565b820191906000526020600020905b81548152906001019060200180831161018057829003601f168201915b505050505081526020016001820180546101b690610805565b80601f01602080910402602001604051908101604052809291908181526020018280546101e290610805565b801561022f5780601f106102045761010080835404028352916020019161022f565b820191906000526020600020905b81548152906001019060200180831161021257829003601f168201915b5050505050815250509050919050565b6040518060400160405280838152602001828152506000803373ffffffffffffffffffffffffffffffffffffffff1673ffffffffffffffffffffffffffffffffffffffff16815260200190815260200160002060008201518160000190816102a791906109ec565b5060208201518160010190816102bd91906109ec565b509050505050565b60006020528060005260406000206000915090508060000180546102e890610805565b80601f016020809104026020016040519081016040528092919081815260200182805461031490610805565b80156103615780601f1061033657610100808354040283529160200191610361565b820191906000526020600020905b81548152906001019060200180831161034457829003601f168201915b50505050509080600101805461037690610805565b80601f01602080910402602001604051908101604052809291908181526020018280546103a290610805565b80156103ef5780601f106103c4576101008083540402835291602001916103ef565b820191906000526020600020905b8154815290600101906020018083116103d257829003601f168201915b5050505050905082565b604051806040016040528060608152602001606081525090565b6000604051905090565b600080fd5b600080fd5b600073ffffffffffffffffffffffffffffffffffffffff82169050919050565b600061045282610427565b9050919050565b61046281610447565b811461046d57600080fd5b50565b60008135905061047f81610459565b92915050565b60006020828403121561049b5761049a61041d565b5b60006104a984828501610470565b91505092915050565b600081519050919050565b600082825260208201905092915050565b60005b838110156104ec5780820151818401526020810190506104d1565b60008484015250505050565b6000601f19601f8301169050919050565b6000610514826104b2565b61051e81856104bd565b935061052e8185602086016104ce565b610537816104f8565b840191505092915050565b6000604083016000830151848203600086015261055f8282610509565b915050602083015184820360208601526105798282610509565b9150508091505092915050565b600060208201905081810360008301526105a08184610542565b905092915050565b600080fd5b600080fd5b7f4e487b7100000000000000000000000000000000000000000000000000000000600052604160045260246000fd5b6105ea826104f8565b810181811067ffffffffffffffff82111715610609576106086105b2565b5b80604052505050565b600061061c610413565b905061062882826105e1565b919050565b600067ffffffffffffffff821115610648576106476105b2565b5b610651826104f8565b9050602081019050919050565b82818337600083830152505050565b600061068061067b8461062d565b610612565b90508281526020810184848401111561069c5761069b6105ad565b5b6106a784828561065e565b509392505050565b600082601f8301126106c4576106c36105a8565b5b81356106d484826020860161066d565b91505092915050565b600080604083850312156106f4576106f361041d565b5b600083013567ffffffffffffffff81111561071257610711610422565b5b61071e858286016106af565b925050602083013567ffffffffffffffff81111561073f5761073e610422565b5b61074b858286016106af565b9150509250929050565b600082825260208201905092915050565b6000610771826104b2565b61077b8185610755565b935061078b8185602086016104ce565b610794816104f8565b840191505092915050565b600060408201905081810360008301526107b98185610766565b905081810360208301526107cd8184610766565b90509392505050565b7f4e487b7100000000000000000000000000000000000000000000000000000000600052602260045260246000fd5b6000600282049050600182168061081d57607f821691505b6020821081036108305761082f6107d6565b5b50919050565b60008190508160005260206000209050919050565b60006020601f8301049050919050565b600082821b905092915050565b6000600883026108987fffffffffffffffffffffffffffffffffffffffffffffffffffffffffffffffff8261085b565b6108a2868361085b565b95508019841693508086168417925050509392505050565b6000819050919050565b6000819050919050565b60006108e96108e46108df846108ba565b6108c4565b6108ba565b9050919050565b6000819050919050565b610903836108ce565b61091761090f826108f0565b848454610868565b825550505050565b600090565b61092c61091f565b6109378184846108fa565b505050565b5b8181101561095b57610950600082610924565b60018101905061093d565b5050565b601f8211156109a05761097181610836565b61097a8461084b565b81016020851015610989578190505b61099d6109958561084b565b83018261093c565b50505b505050565b600082821c905092915050565b60006109c3600019846008026109a5565b1980831691505092915050565b60006109dc83836109b2565b9150826002028217905092915050565b6109f5826104b2565b67ffffffffffffffff811115610a0e57610a0d6105b2565b5b610a188254610805565b610a2382828561095f565b600060209050601f831160018114610a565760008415610a44578287015190505b610a4e85826109d0565b865550610ab6565b601f198416610a6486610836565b60005b82811015610a8c57848901518255600182019150602085019450602081019050610a67565b86831015610aa95784890151610aa5601f8916826109b2565b8355505b6001600288020188555050505b50505050505056fea2646970667358221220331b192e6f6219a1df5905c46abebc25cab96a3b6cd2471c781659c1c6bcf8c064736f6c63430008180033",
  "linkReferences": {},
  "deployedLinkReferences": {}
}